:1000000000100020AD0A0000A90A0000A90A0000A3
:10001000A90A0000A90A0000A90A0000A90A000014
:10002000A90A0000A90A0000A90A0000A90A000004
:10003000A90A0000A90A0000A90A0000A90A0000F4
:10004000A90A0000A90A0000A90A0000A90A0000E4
:10005000A90A0000A90A0000A90A0000A90A0000D4
:10006000A90A0000A90A0000A90A0000A90A0000C4
:10007000A90A0000A90A0000A90A0000A90A0000B4
:10008000A90A0000A90A0000A90A0000A90A0000A4
:10009000A90A0000A90A0000A90A0000A90A000094
:1000A000A90A0000A90A0000A90A0000A90A000084
:1000B000A90A0000A90A0000A90A0000A90A000074
:1000C000A90A0000A90A0000A90A0000A90A000064
:1000D000A90A0000A90A0000A90A0000A90A000054
:1000E000A90A0000A90A0000A90A0000A90A000044
:1000F000A90A0000A90A0000A90A0000A90A000034
:10010000A90A0000A90A0000A90A0000A90A000023
:10011000A90A0000A90A0000A90A0000A90A000013
:10012000A90A0000A90A0000A90A0000A90A000003
:10013000A90A0000A90A0000ED080000F908000063
:1001400010B5054C237833B9044B13B1044800E0D3
:1001500000BF0123237010BDA41000200000000088
:10016000884B000008B5034B1BB10349034800E06E
:1001700000BF08BD00000000A8100020884B000050
:10018000A3F5803A704700BF174B002B08BF134BF5
:100190009D46FFF7F5FF00218B460F461348144A92
:1001A000121A03F0A9F80E4B002B00D098470D4B04
:1001B000002B00D098470020002104000D000D48BE
:1001C000002802D00C4800E000BF03F071F82000C6
:1001D000290000F0CDFA03F057F800BF0000080036
:1001E000000000000000000000100020A41000200B
:1001F0008C110020000000000000000000F0C4B9D5
:1002000000F03CBA10B5044601461C4803F07CF8E7
:10021000E20602D51A4803F077F8230702D51948F9
:1002200003F072F8600602D5174803F06DF8A106D6
:1002300002D5164803F068F8220602D5144803F0E8
:1002400063F8630702D5134803F05EF8A00502D5F2
:10025000114803F059F8210502D5104803F054F86D
:10026000620502D50E4803F04FF8E30704D4BDE859
:1002700010400C4803F048B810BD00BF884400008F
:10028000954400009C440000A3440000AB440000DF
:10029000B3440000BA440000BF440000C74400005B
:1002A000D1440000DB44000030B589B0114B01247B
:1002B0001B780D465B00ADF80C300423ADF80E3012
:1002C0006B44049302AB06930223ADF81C300A4B37
:1002D0008DF8040003A91868ADF8144000F078FD0B
:1002E00028B9BDF808305BBA2B8009B030BD204674
:1002F000FBE700BF00100020181000207FB50B0A9C
:100300008DF801300D4B8DF800001B788DF8021030
:100310005B00ADF804300123ADF806300323ADF8DF
:100320000C30074B01A91868CDF808D000F050FD3B
:10033000003818BF012007B05DF804FB0010002052
:100340001810002030B589B0144B01241B780D46DD
:100350005B00ADF80C300423ADF80E306B44049311
:1003600002AB06930323ADF81C300D4B8DF804004F
:1003700003A91868ADF8144000F02AFD60B99DF893
:1003800009309DF808201B0243EA02439DF80A2029
:1003900013432B6009B030BD2046FBE7001000205E
:1003A0001810002030B585B0054618B92124204624
:1003B00005B030BDD0ED017AF5EEC07AF1EE10FA5D
:1003C000F4D9D0ED027AF5EEC07AF1EE10FAEDD95B
:1003D00002782A4B3F200DF10E011A70FFF764FFDF
:1003E00004460028E3D142F28123BDF80E209A4250
:1003F00042D14FF66E310120FFF780FF04460028FE
:10040000D5D1DFED1F7A95ED020A20EE270ADFED48
:100410001D7A1D4B83ED000A20EE270AD5ED017AE7
:1004200020EE270AB5EEC00AF1EE10FABED9F0EEC2
:10043000C07A9FED167AF4EE477AF1EE10FAB5D84D
:10044000DFED137AB4EEE70AF1EE10FAAEDC03F05A
:10045000C3FF47F6FF7310F4004F18BF184681B270
:1004600002200191FFF74AFF0199044600289ED11E
:10047000084802F049FF9AE72D2498E70010002071
:100480000000003600504350C0100020FFFF7F7F67
:1004900080FFFF47E444000013B5044601A905208E
:1004A000FFF750FF60B9019B9FED067AC3F313136A
:1004B00007EE903AF8EEE77A67EE877AC4ED007AB5
:1004C00002B010BDCDCC4C3913B5044601A90720AC
:1004D000FFF738FF68B9019B43F3131307EE903A17
:1004E000054BF8EEE77A93ED007A67EE877AC4ED74
:1004F000007A02B010BD00BFC010002001460B20E2
:10050000FFF7D2BE08B507EE900AB1EE040AF8EE86
:10051000E77A87EE800A03F05FFFBDE8084000F34A
:100520000F0081B20C20FFF7E9BE000008B5F0B162
:10053000B5EEC00AF1EE10FA19D9F0EEC07A9FEDCF
:100540000F7AF4EE477AF1EE10FA10D807EE900A1F
:100550009FED0B7AF8EE677A67EE877A27EE800ACE
:1005600003F03AFF002804DD064B984202DD21200B
:1005700008BD0120BDE80840FFF7C4BFFFFF7F7F33
:1005800000007A44888402001FB500232F4C1946CE
:1005900020680222806802F0CFFE002320681946FE
:1005A0000222406802F0C8FE294B186802F012FBD4
:1005B000284AD2F8FC3043F08073C2F8FC300022A5
:1005C000254B5A601A6842F001021A60234A1168EA
:1005D000234A89B111605A68224B1A60224A01AB42
:1005E00007CA83E807001846FFF7DCFE30B11F4852
:1005F00002F08AFE04B010BD0121EBE7F6EE007AAE
:100600009FED1B7A9DED036AF0EE676A46EE076A7E
:100610009DED026A46EE077ABCEEE67AFCEEE77ADA
:1006200017EE103A17EE902A9DF80410114802F0C8
:100630006BFE9DED020A0A20FFF778FF0028D9D053
:100640000A210D4802F060FED4E700BF38100020F8
:100650001C10002000ED00E0001000E02010002041
:10066000C8100020C4100020DC4500000445000034
:1006700000007A44424500007B45000030B585B05B
:10068000324B334D5B682A689B1A324A1268934298
:1006900051D300230DF10600ADF80630FFF72EFF11
:1006A0000023044602A802930393FFF7F5FE0028F7
:1006B00048D103A8FFF708FF002843D19DED026A47
:1006C000B5EEC06AFEEE006AF1EE10FAF6EE007AC0
:1006D000DFED215A27FEA67A06EE257ABDEEC77A0F
:1006E00017EE101A9DED037AB5EEC07AF1EE10FA0E
:1006F00067FEA67ADFED196A47EE267AFDEEE77A05
:1007000001F1180317EE902A302B40F22E2302F24B
:10071000171098BF0021984298BF0022104802F09D
:10072000F3FD54B10F4802F0EFFD0F4802F0ECFD6D
:10073000064B5B682B6005B030BDBDF80600FFF7C7
:1007400061FDF2E7094802F0DFFDEAE7001000E092
:10075000C4100020C810002000007A44002474490E
:10076000A1450000BB45000078450000C9450000D8
:1007700008B502F03BFDFFF741FD02F044FDFFF735
:100780003FFDFAE708B5012000F0BAF8202000F09C
:10079000B7F8BDE80840402000F0B2B808B5032122
:1007A000802001F09FF803214FF4806001F09AF857
:1007B00003214FF4906001F095F808214FF4C060D8
:1007C00001F090F808214FF4F06001F08BF8082157
:1007D0003E2001F087F808212D2001F083F8002049
:1007E00008BD000008B5134B1B68C3F30743012B7A
:1007F0000ED1114B04205A6E4FF480230F4952033F
:1008000058BF0F4A4B6601F51041086258BF536646
:1008100002F0C2F900F0ADF802F050F902F070F900
:1008200002F0A4F9FFF7BAFF02F058F9BDE808405A
:1008300000F094B80080E00F00800050009000505D
:1008400000A0005000F010B808B500F057F802F012
:1008500073FBBDE8084000F047B870477047704729
:10086000704770477047000008B53A20012100F03A
:1008700099FCBDE80840014800F0EAB904100020E6
:1008800070B59AB0144C07AD0FCC0FC594E80F00AB
:1008900004F1100685E80F000FCE0FAD0FC50FCE87
:1008A0000FC596E807003C3485E8070094E80F0080
:1008B00003AD85E80F00094B2946009308480FABAC
:1008C00007AA02F00DFA044618B16921054800F0A4
:1008D000ADF920461AB070BD18460000CC100020BB
:1008E00044110020E8450000FFF7CABF014B18681B
:1008F00002F0DCBA44110020FFF7F8BF0E20704769
:1009000008B5082816D00DDC022803DC002811DC0D
:10091000EB2102E00428FBD1C2210F4800F086F948
:100920000E2013E020280AD0402810D01028EFD144
:10093000D421F2E7002304220621022003E004224E
:1009400000231146012001F04BFD002008BD0023CB
:1009500004220721F1E700BF7446000008B5012119
:100960003A2000F01FFCFFF70DFFBDE8084000F043
:1009700011B801213A2000F015BC00000822014BFB
:100980001A67704700D003500822014B1A6770475E
:1009900000E00350F0B589B03F4D01AC0FCD0FC45E
:1009A00095E8070084E80700012401213A2000F0BF
:1009B000F9FB3A4F0121282000F0F4FB384B384670
:1009C00001A903938DF8124002F000F82346042297
:1009D0000021022001F004FD2246214600230220CE
:1009E00001F0FEFC022123460846042201F0F8FC37
:1009F000042203212346022001F0F2FC4FF00213EF
:100A0000284D0226C5F83036A3F58033C5F82C36BC
:100A10001C23C5F834664FF44870C5F81C3602F044
:100A2000FDFB1420FFF7B0FF02F0F8FB2320FFF7D7
:100A3000A5FF02F0F3FBB9213846FFF7A5FF02F04E
:100A400033F8FFF79BFF002330461A46194601F0A2
:100A5000C7FC002321461A46304601F0C1FC23465C
:100A600031463046002201F0BBFC23460022032120
:100A7000304601F0B5FC384601F06CFF002128201B
:100A8000C5F83016C5F82C16C5F83416C5F81C166E
:100A900000F088FB09B0F0BDD046000000C0055052
:100AA00000127A0000C00350FEE7000008B500F015
:100AB0002DF8124B12498B4212D30020114B1249D0
:100AC0008B4218D3FFF760FB186850F82240586833
:100AD00040F82240013298688242F5D30C33EAE7AD
:100AE0000022F8E71C6844F8220001325C68A24248
:100AF000F8D30833E4E70022F8E700BF904B00008A
:100B00009C4B00009C4B00009C4B000010B54FF428
:100B100000414FF0FF30124B124A9A60D3F8882000
:100B200042F47002C3F888200F4A916601F18841AF
:100B300001F5005210664FF6DF7050660220C3F8D0
:100B4000D000BFF34F8FBFF36F8F08244FF44033B3
:100B50000648C0F88041D36004600B6110BD00BF3F
:100B600000ED00E0000000000090005000E100E017
:100B7000014B1868704700BF24100020084B1B6F02
:100B800003F00703022B04D0032B05D0012B05D063
:100B9000FEE7044B18687047034BFBE703487047B8
:100BA000008000502410002028100020002D31016A
:100BB00008B5FFF7E3FF054B1B6FC3F303330133A6
:100BC000B0FBF3F0024B186008BD00BF008000507E
:100BD000201000200048704700B4C404014B18687E
:100BE000704700BF28100020054B1860054B1B6F95
:100BF00003F00703032B01D1FFF7DABF704700BFF3
:100C000028100020008000500020704700487047E6
:100C1000002D31014FF4004070474FF47A70704757
:100C2000014B1868704700BF2C100020FEE7000041
:100C300005490A681318054883428CBF4FF0FF32FC
:100C40000B601046704700BF30100020008000206D
:100C50002DE9FF47044618B92C215848FFF7E6FF55
:100C60002368574A93420AD0564A934200F0838041
:100C70004221524804B0BDE8F047FFF7D7BF2E200D
:100C8000012100F08FFA01230A226179207901F015
:100C9000A7FB01230A22E179A07901F0A1FB092732
:100CA0004FF00108DFF82491474D267994F805A00C
:100CB000002E62D0012E63D0022E63D0032E04D109
:100CC0000F2323FA0AF3DA0704D440F2FE31484630
:100CD000FFF7ACFF302202FB065642F2100208FA80
:100CE0000AF3B350642002F099FA267994F805A02B
:100CF000002E49D0012E4AD0022E4AD0032E04D114
:100D00000F2323FA0AF3DB0704D440F22D414846AF
:100D1000FFF78CFF302202FB065641F2100208FA60
:100D20000AF36420B35002F079FA013FBDD1206884
:100D3000234B98422FD10323C5F89034627923794D
:100D400043EA0243C5F89434E279A37943EA0243C3
:100D5000C5F8983440F20113ADF80030E3686946F5
:100D60000293A3680193237C8DF80C3001F01AFCE8
:100D700004B0BDE8F0872F2082E740F2FF13A0E720
:100D80001F239EE7FF239CE740F2FF13B9E71F23D1
:100D9000B7E7FF23B5E70B4B9842DBD10323C5F838
:100DA000A0346279237943EA0243C5F8A434E27996
:100DB000A37943EA0243C5F8A834CBE7EC46000028
:100DC0000000015A0080065000C003504247000056
:100DD00038B5054601F03CFD044C012801D1013C29
:100DE00000D138BD284601F011FCF6E7E19304007C
:100DF000044BD3F88420D206FBD4D3F88400C0F38C
:100E0000811070470040005038B5124B0546D3F8AA
:100E100020310C4603F00303022B0BD0032B0DD023
:100E2000012B0FD1FFF7A4FE052305B1286004B103
:100E3000236038BDFFF7D2FE0323F6E7FFF7E6FE97
:100E40000223F2E7044841F22B01FFF7EFFE0023F3
:100E50001846EAE7008000508E470000F7B50027EB
:100E6000114B0197D3F88041064604F00304012C8E
:100E70000D4608D0022C12D041F278110B48FFF732
:100E8000D5FE3C4604E0394601A8FFF7BDFF0F241C
:100E90000EB1019B336005B12C6003B0F0BDFFF7CC
:100EA000B5FE0190F4E700BF008000508E470000BF
:100EB00038B5194B0546D3F824310C4603F0070327
:100EC000013B052B20D8DFE803F0030F171B0B13A2
:100ED000FFF74EFE052305B1286004B1236038BD3D
:100EE000FFF746FE0623F6E7FFF778FE0323F2E757
:100EF000FFF774FE0423EEE7FFF788FE0223EAE71C
:100F0000FFF782FE0723E6E7044840F68851FFF723
:100F10008DFE00231846DEE7008000508E4700005B
:100F200038B5124B0546D3F840310C4603F00303A5
:100F3000022B0BD0032B0DD0012B0FD1FFF76AFE34
:100F4000092305B1286004B1236038BDFFF768FEAE
:100F50000823F6E7FFF761FE0B23F2E7044841F2AE
:100F60005901FFF763FE00231846EAE700800050AE
:100F70008E47000038B5154B0546D3F800320C46B5
:100F800003F00703013B032B18D8DFE803F0020A44
:100F90000E12FFF73FFE092305B1286004B123605C
:100FA00038BDFFF73DFE0823F6E7FFF736FE0B23BB
:100FB000F2E7FFF7FDFD0E23800AEDE7044841F25A
:100FC0002E21FFF733FE00231846E5E7008000508E
:100FD0008E47000038B5124B0546D3F840320C4618
:100FE00003F00303022B0BD0032B0DD0012B0FD1E9
:100FF000FFF710FE092305B1286004B1236038BD56
:10100000FFF70EFE0823F6E7FFF707FE0B23F2E7D4
:10101000044841F2C111FFF709FE00231846EAE730
:10102000008000508E47000038B5124B0546D3F8BB
:1010300060310C4603F00303022B0BD0032B0DD0C1
:10104000012B0FD1FFF7E6FD092305B1286004B19C
:10105000236038BDFFF7E4FD0823F6E7FFF7DDFD69
:101060000B23F2E7044841F28701FFF7DFFD00237D
:101070001846EAE7008000508E47000010B40F4C7D
:101080000B46D4F8204204F00304012C0ED0022CAD
:1010900010D008B1002101600BB100221A6040F6A7
:1010A000B25107485DF8044BFFF7C0BD5DF8044B33
:1010B000FFF7AABE5DF8044BFFF732BF0080005077
:1010C0008E47000010B5B0F5207F34D009D8B0F5B8
:1010D000007F2AD003D898B1B0F5C07F10D000248B
:1010E00021E0B0F5607FFAD1154BD3F88030C3F31F
:1010F00001149B0617D5032C15D040F282210FE076
:101100000F4B1C6F230B13F00E0FC4F303340AD0E4
:10111000032C08D0072C06D00F2C04D040F27221EB
:101120000848FFF783FD601C10BD054BD3F89040C5
:10113000C4F30464F7E7024B1C6FC4F38024F2E7A6
:10114000008000508E47000010B54FF400320E4B67
:1011500004469A660020FFF7B5FF41F671326043FE
:101160000A4C0B4BA0428CBF4FF480100020D96971
:10117000DA639A6822F4401202439A60CA0344BFB9
:101180000022DA6310BD00BF00900050005A6202D6
:101190000000035008B5FFF71DFDBDE80840002121
:1011A000FFF7D2BF70B5460904460D460FD140F295
:1011B00016310D48FFF73AFD334604F01F0485B1A0
:1011C00003F58053012000FA04F41C6070BD012E69
:1011D00005D0064B064A022E18BF1346EDE7054B15
:1011E000EBE703F50053EDE78E4700006880005001
:1011F000608200506480005030B585B000238028A4
:101200000446019374D02AD8002877D0A0F1200496
:10121000412C32D8412C30D8DFE804F070732F73A2
:10122000868686867373903FA6653F7373732F2FF0
:101230002F2F2F2F8B57737373B0AB732F2F2F2F2D
:101240002F2F2F2F2F2F2F2F2F702F707070862F53
:101250002F2F2F2F2F2F2F2F2F2F2F2F7070B0F5D5
:10126000806F61D024D8B0F5007F54D00BD8B0F592
:10127000807F68D0B0F5C07F40D040F26D414248D9
:10128000FFF7D4FC37E0B0F5607F44D0F5D8B0F577
:10129000207F36D0B0F5407FEFD1FFF789FC0446C0
:1012A0004FF42070FFF70EFFB4FBF0F0400821E090
:1012B000B0F5C06F58D00DD8B0F5A06F39D0B0F5EB
:1012C000B06F3BD0B0F5906FD7D1002101A8FFF7E8
:1012D000EFFD10E0B0F5E06F4BD0B0F5F06F4DD002
:1012E000B0F5D06FC9D1002101A8FFF743FE02E09D
:1012F000FFF744FC0190019805B030BDFFF758FCA2
:10130000F8E7FFF755FC04464FF42070FFF7DAFECC
:10131000B4FBF0F0EEE7FFF731FC05462046FFF79F
:10132000D1FEB5FBF0F0E5E7002101A8FFF76CFD69
:10133000E1E7002101A8FFF7A1FEDCE7002101A8F9
:10134000FFF78CFDD7E702934FF0E0231B695B07A3
:1013500005D5FFF72DFC0290029B0193CBE703A973
:1013600002A8FFF7DDFDF7E7002101A8FFF7D8FD90
:10137000C1E7002101A8FFF72DFEBCE7002101A86D
:10138000FFF752FEB7E700BF8E4700001FB50023EE
:10139000B0F5807F01937FD027D8382800F09C805B
:1013A0000BD82438092810D809280ED8DFE800F017
:1013B0006F6F6F6F0D0D670D3685522867D007D898
:1013C0003D283AD03E2800F08C8040F24B5152E04C
:1013D0008028FAD1454B1B6F03F00703013B032B19
:1013E00047D8DFE803F044413F75B0F5D06F64D0D3
:1013F00019D8B0F5A06F6FD00AD8B0F5806F46D07D
:10140000B0F5906FE1D1002001A9FFF751FD3AE05E
:10141000B0F5B06F33D0B0F5C06FD6D1002001A9C0
:10142000FFF77EFD2FE0B0F5006FECD00AD8B0F5E5
:10143000E06F56D0B0F5F06FC7D1002001A9FFF7DB
:10144000F3FD20E0B0F5086FBFD1284BD3F8003191
:1014500003F00303022B35D0032B37D0012B39D1F6
:10146000FFF7BCFB032300E0052301930BE00223FD
:10147000FBE740F29F411E48FFF7D8FB03E0002046
:1014800001A9FFF7EBFC019805B05DF804FB002013
:1014900001A9FFF7B9FCF6E702934FF0E0231B69BF
:1014A0005B0705D5FFF784FB0C230393039BDCE765
:1014B00003A902A8FFF734FDF8E7002001A9FFF710
:1014C00059FDE0E7FFF7ACFB0823CEE7FFF79CFBF5
:1014D0000723CAE70123C8E7002001A9FFF7CEFDD3
:1014E000D1E7002001A9FFF775FDCCE7008000508F
:1014F0008E47000070B5036804460F2B04D940F6F0
:1015000063216E48FFF792FB63680F2B04D940F606
:1015100066216A48FFF78AFBA3680F2B04D940F6BF
:1015200069216648FFF782FB237B0F2B04D940F625
:101530006C216248FFF77AFB637B0F2B04D940F6DE
:101540006F215E48FFF772FBA37B3F2B04D940F667
:1015500072215A48FFF76AFBE37B3F2B04D940F620
:1015600075215648FFF762FB2369032B04D940F627
:1015700078215248FFF75AFB6369032B04D940F6E0
:101580007B214E48FFF752FBE369012B04D940F65B
:101590007E214A48FFF74AFB8020FFF7F7FE032829
:1015A00000F082804FF40022454B02215A6645F636
:1015B0000E03444AC2F88030434B9962012103F57F
:1015C00080539962936DD903FCD4D4E900131B05B1
:1015D00043EA0163E17B94F822500B43217B94F8AA
:1015E000236043EA0143617B43EA0133A17B43EA81
:1015F000811313619169D4E904031B0643EA8063F4
:1016000001F000410B43A17EE07E0B43217E43EAC3
:101610000143617E43EA01239361E369126A002B6F
:101620000CBF0021082122F00D0242EA030242EA27
:101630008002244B42EA01021A6294F820204FEA09
:10164000421232D1986A94F8211020F0330042EA15
:101650000112024342F001029A621C4A996D32EA79
:101660000101FBD1022218498A621A659A6D520063
:10167000FCD41869A26820F4700040EA02504FF0D0
:1016800000421861104B9A611DB9022203F5805384
:101690009A6216B901220E4B9A6294F824301BB15B
:1016A000084B0C4AC3F8802070BD996A21F03301C1
:1016B00031430A4342EA4502EEE700BF8E4700008D
:1016C0000090005000C0005000D0005003000140C6
:1016D00000E00050F1A7FFFF014B93F900007047B5
:1016E0005C11002010B543680446072B04D940F66E
:1016F000E1312A48FFF79AFAA368032B04D940F690
:10170000E3312648FFF792FA2378032B04D940F6F9
:10171000E5312248FFF78AFA94F90130002B04DA08
:1017200040F6E7311D48FFF781FA4FF480011C4A6B
:10173000637851664FF4D151022002F5B8325162FC
:1017400018494F2B48604FF0010028BF4F2301F587
:10175000805148601169C903FCD4217843EA012310
:101760005361D4E901131B0143EA0123617B0B435D
:10177000217B43EA41039360E37BA17B1B0143EAA6
:101780004113617C0B43217C43EA41035360A37CFA
:1017900013B16FF4D153536210BD00BF8E470000E8
:1017A0000090005000100250014B1880704700BF9D
:1017B000341000200029CCBF01210021FFF7C4BC58
:1017C00010B5B0F5207F5FD00ED8B0F5007F49D0BE
:1017D00003D800B3B0F5C07F1DD040F2F921BDE8B9
:1017E00010403148FFF722BAB0F5607FF5D14C1EAA
:1017F000012C06D9042904D040F2DD212A48FFF744
:1018000015FA2A4AD2F8803023F0300343EA041351
:10181000C2F8803010BD102901F1FF3404D8244BE8
:1018200023FA01F1CB0704D440F2B2211E48FFF79E
:10183000FDF9FFF7AFFC00F03DF81C4A136F23F4ED
:10184000704343EA04331367FFF7B2F90446FFF726
:10185000CFFAC0F102012046FFF7ACFFBDE810400F
:1018600000F02EB84C1E1F2C04D940F2ED210E487A
:10187000FFF7DCF90D4BD3F8901021F0F85141EA55
:101880000461C3F89010C5E74C1E012C04D940F246
:10189000F3210548FFF7CAF9044B196F21F4806161
:1018A00041EA84211967B5E78E47000000800050A7
:1018B0001601010002214FF42070FFF781BF0000E4
:1018C00008B54FF4C070FFF797FCBDE80840044925
:1018D00088428CBF022101214FF42070FFF770BFB6
:1018E00080F0FA0270B5B0F5807F0C4600F00281FE
:1018F0002BD8382800F09A8110D82438092816D817
:10190000092814D8DFE810F0DB00DB00DB00DB0087
:1019100013001300C600130048004A01522800F0CB
:10192000CE8007D83D2851D03E2800F0968140F661
:10193000670119E18028FAD18B1E052B00F29F80E8
:10194000DFE803F09A8B9DA59D64B0F5D06F00F0A1
:10195000258130D8B0F5A06F00F0688115D8B0F5BA
:10196000806F00F0AC80B0F5906FE0D1023C052CA8
:1019700000F20D81A44B195DA44AD2F8243123F062
:1019800007030B43C2F8243166E0B0F5B06F00F0F6
:101990008180B0F5C06FCAD1083C032C00F2E98009
:1019A0009B4B195D994AD2F8403123F003030B4356
:1019B000C2F8403150E0B0F5006FD7D015D8B0F57F
:1019C000E06F00F04A81B0F5F06FB0D1083C032C15
:1019D00000F2D6808F4B195D8C4AD2F8603123F02B
:1019E00003030B43C2F8603136E0B0F5086F9ED1B7
:1019F0004C1E072C00F2FE80DFE814F00101FC0011
:101A00000301FC00FC00FC00FA00F00000250426A5
:101A10000121022000F058F9FFF7BCFBFFF74AFF55
:101A20007A4A136F23F0070333431367FFF7C0F8B5
:101A30000646FFF7DDF9C0F102013046FFF7BAFEB6
:101A40000121002000F098F9FFF73AFF25B9032C97
:101A500002D10122704B9A6270BD4FF400226F4B8D
:101A60000E465A66012203F540539D6A03F58053E2
:101A7000C5F340059A62CBE700250126C8E700259B
:101A800040F28D516648FFF7D1F82E46C0E7002599
:101A90000226BDE7022C07D00F2C0ED040F2D25107
:101AA0005F48FFF7C3F80024584BD3F8801121F0AA
:101AB00003010C43C3F88041CEE70124F4E7032C73
:101AC00012D0052C12D0022C12D040F209615448D9
:101AD000FFF7ACF800224D49D1F8203123F0030381
:101AE0001343C1F82031B7E70222F4E70122F2E7FD
:101AF0000322F0E7A1F10804082C33D8DFE804F052
:101B0000050532051C32323205004FF480323F4B5E
:101B10004449586E03F580535A660B6A43F001033B
:101B20000B62C1035CBF404B5A664FF0E022136961
:101B300023F0040313618FE74FF48032334B3949AC
:101B4000586E03F580535A660B6A23F001030B624B
:101B5000C3035CBF344B5A664FF0E022136943F075
:101B60000403E7E740F23161BDE870402C48FFF71D
:101B70005DB840F24D612A48FFF758F8002111E79F
:101B80004FF4CD612648FFF751F8002124E740F2D9
:101B90008D612348FFF74AF80021EDE6083C062C4A
:101BA00013D8DFE804F00419190E121210000222F3
:101BB0001649D1F8003223F007031343C1F800326D
:101BC0004AE70322F4E70422F2E740F2AD61144849
:101BD000FFF72CF80022EBE70122E9E702220B498C
:101BE000D1F8003123F003031343C1F8003133E788
:101BF0000322F4E740F2E9610948FFF717F80022F1
:101C0000EDE70122EBE700BFDD4700000080005058
:101C1000D9470000D947000000E000500090005074
:101C20008E47000000C0075000A000500F2C10D0BD
:101C3000102C10D040F234711248FEF7F7FF00224A
:101C40001149D1F8203223F003031343C1F82032A5
:101C500002E70122F4E70222F2E7083C032C0AD84B
:101C60000A4B195D084AD2F8403223F003030B43B4
:101C7000C2F84032F0E640F2B5710248FEF7D6FFF6
:101C80000021EFE78E47000000800050D947000098
:101C9000EFF3108072B6704700B962B67047EFF389
:101CA0001180302383F31188704780F311887047C7
:101CB000034A0179D36E23F030030B43D366704798
:101CC00000400050704700002DE9F0410446264BCB
:101CD000D3F88420D006FBD4D3F88430C3F3811327
:101CE0009C423ED0FEF74AFF012C05460BD11F4B0C
:101CF000984204D940F2FD611D48FEF797FF01218B
:101D00002846FFF757FDFFF7C3FF4FF00072194B4E
:101D100007465A662046FFF7D5FF4FF48063124E00
:101D2000621E9340DFF848803367736E9A0103D4D4
:101D3000D6F884309B060AD53846FFF7ADFF022C53
:101D40000FD12846BDE8F0410021FFF733BDD6F89A
:101D500084309906E9D540F20B714046FEF766FFE4
:101D6000E3E7BDE8F08100BF00400050005A620286
:101D7000E34700000060005007B518B90191FEF775
:101D8000FDFE0199064B1B7843B1064B984205D8DE
:101D9000012003B05DF804EBFFF796BF0220F8E7DF
:101DA0005D110020005A62027047000010B54FF02C
:101DB000004201244AF6CD31154B5A66154A03F507
:101DC0000B2354605A6C1964224088B9996811F049
:101DD000010F114903D08C60D86AC007FCD50123DC
:101DE0004B6012B10D4B0E4A1A64FFF7DDFF10BDB8
:101DF000D96A0907FCD42021074B59620121A3F5B8
:101E00008053996005494B6A9B06FCD5E9E700BF02
:101E100000900050005009500060095000400950E7
:101E20003254FFFF38B54FF00042194B194C5A6637
:101E3000012203F50C235A604AF6CD33656C236406
:101E40004378154093401343134AD363A3688278C1
:101E500023F0740343EA0213C278002A14BF042259
:101E600000221343A3600279837943EA02232361AA
:101E70004279C37943EA022363610078FFF796FF52
:101E80000DB1064B2364FFF78FFF012038BD00BF63
:101E90000090005000400950004000503254FFFFB5
:101EA000C36C0B42FCD1704708B543680246DB07A0
:101EB00014D50A2350210363FFF7F2FF136C99072F
:101EC000FCD1936A012110469362FFF7E9FF136C7E
:101ED0001B0604D4012302F50052536008BD536B66
:101EE000F5E7000010B50446FFF7DEFF002341F2DE
:101EF00002020849E360A360226104F50052E36135
:101F00006361A36123626362E362A3645164A362B9
:101F100010BD00BF7F370C0138B5154B0446984201
:101F20000D4604D040F263111248FEF77FFE25B93A
:101F30002046BDE83840FFF7B7BF012204F58053C3
:101F40005A6040F2FF71204605F00F02FFF7A8FF2C
:101F500022637821FFF7A4FF05F001036A0748BF59
:101F600043F00203226C02F003029A42FAD138BD18
:101F70000000035A2E480000036C1B06FCD5406B82
:101F8000C0B27047036C5B06FCD5C16370470000AC
:101F9000F8B506460C46174622B94FF4027141487F
:101FA000FEF744FE404B9E4278D040F20B213D4864
:101FB000FEF73CFE44B940F25A313A48FEF736FE8D
:101FC0002046FFF719F904467368012B04D040F24C
:101FD0003D213448FEF72AFEB16801F0E0014029B6
:101FE00046D009D8B9B1202938D040F27F21BDE8C8
:101FF000F8402C48FEF71ABE602945D08029F4D15C
:1020000007EB4703A34204D940F279212548FEF7A4
:102010000DFE012308E0B7EB141F04D940F265213F
:102020002048FEF703FE10237B436401B4FBF3F367
:102030001E4D203BB5EBC30F4FEAC30404D240F260
:102040008A211848FEF7F2FD30462C400121FFF7A7
:1020500027FFB462BDE8F840FFF722BFB7EBD40F0B
:1020600004D940F26A210F48FEF7E0FD0823DBE7C0
:102070000625B4FBF5F3BB4204D240F26F210948B8
:10208000FEF7D4FD2B46CFE7B7EB940F04D94FF4FE
:102090001D710448FEF7CAFD0423C5E7002C93D147
:1020A00038248DE72E4800000000035AF8FF7F0017
:1020B00070B5436804460D4616461BB140F2FF71E9
:1020C000FFF7EEFE2046FFF70DFFE9896B7B2269E3
:1020D0000B43298A22F44C520B4322F00302134390
:1020E0002361A2682B7B297E22F0804222F0E2024B
:1020F0000B4313436A691343A360AB681BB9A3681E
:1021000043F00043A360EB69002B52D0A268197A18
:1021100042EA8152A260A268997A42EA4142A260F0
:102120009A88A16802F4C0420A43A260A268597862
:1021300042EA8102A260A268597B42EAC102A2601F
:10214000A268997B42EA0112A260A268997842EAE9
:102150008122A260DA799979520242EA8122E26010
:102160001A7802F0FD01012908BFE168A2F102021C
:1021700004BF41F00401E160012A4FF0010294BF65
:1021800020492149C1F8C0205A7A04F580510A62D9
:102190001AB1E26842F40062E260DA7A4AB1E268B7
:1021A00042F40042E2601B7B184A03F00F03C2F8BE
:1021B000803036B196F8203004F58051ABB1012360
:1021C0008B6105212046FFF7A7FEAA681AB12046B9
:1021D0006968FFF7DDFE20462978FFF79DFE236C36
:1021E000DB4313F4405FFAD170BD626996F8223088
:1021F00096F8210022F009020343134343F0010340
:102200004B61DEE700D4035000E40350009003501C
:1022100038B52A4B054698420C4640D08A212848BA
:10222000FEF704FD34B98C212548FEF7FFFC234B53
:102230009D4236D09E212248FEF7F8FC637B032B9B
:1022400003D9A7211E48FEF7F1FC237B802B03D086
:10225000A9211B48FEF7EAFC6369B3F1804F03D064
:10226000AB211748FEF7E2FC238A23F400539BB20C
:10227000B3F5805F03D0AD211148FEF7D7FCA3680A
:10228000013BB3F5165F03D3AF210D48FEF7CEFC3B
:1022900021462846BDE838400022FFF709BF002943
:1022A000C1D03820FFF772F808380828C2D840F2A9
:1022B0000B1323FA00F0C307BCD5BFE70000035A95
:1022C0002E48000038B5114B054698420C4603D005
:1022D00070210F48FEF7AAFC1CB972210C48FEF7CA
:1022E000A5FC237B802B03D176210948FEF79EFCB9
:1022F000637B032B03D979210548FEF797FC214620
:102300002846BDE838400022FFF7D2BE0000035A3D
:102310002E48000038B50D460446D8B101281CD01F
:1023200002281CD0032803D10F23EB40DB0704D481
:1023300040F22D410B48FEF779FC3020012141F29B
:102340001003444304F1A04401FA05F504F5703488
:10235000E55038BD40F2FF13E7E71F23E5E7FF2311
:10236000E3E700BF4247000038B50D460446D8B148
:1023700001281CD002281CD0032803D10F23EB40D6
:10238000DB0704D440F2FE310B48FEF74FFC30204F
:10239000012142F21003444304F1A04401FA05F57F
:1023A00004F57034E55038BD40F2FF13E7E71F2312
:1023B000E5E7FF23E3E700BF4247000070B50546AD
:1023C00014460E46FFF764FC296881EA040202EA1B
:1023D00006044C402C60BDE87040FFF75DBC000077
:1023E000F8B50D4616461F46044660B301282DD0A9
:1023F00002282DD0032803D10F22EA40D30704D4AA
:102400004FF4B0711B48FEF711FC26B12946204657
:1024100007B3FFF77FFF04EB4403072D4FF00F01D5
:102420004FEA031319D8A80006FA00F281401248B7
:102430001844FFF7C3FFE6B929462046AFB1BDE80F
:10244000F840FFF767BF40F2FF12D6E71F22D4E73C
:10245000FF22D2E7FFF788FFDDE7A5F10800800043
:1024600006FA00F281400548E2E7BDE8F840FFF7D0
:102470007BBFF8BD7C48000004C003500CC0035073
:10248000F8B506460C4615469ABB40F20F11BDE85A
:10249000F8402F48FEF7CABB2E4B9E4201D12F2099
:1024A0003DE040F229112A48FEF7C0FB3AE0032F35
:1024B00042D0294B3CE06FEAC50505442C44B4FBEF
:1024C000F0F4013C0AD540F275112148FEF7AEFB4D
:1024D0004FF4BB711E48FEF7A9FB02E0B4F5007F84
:1024E000F6D2B3689B0702D5002C08BF0124B46163
:1024F000F8BD03F00307836823F440738360FFF79C
:10250000C7FBB26882EA072303F440735340B36009
:10251000FFF7C2FB34B9114B9E42BDD12E20FEF70E
:102520006BFE0446B3689A07C1D5032F04D00C4B49
:1025300053F827309C4204D84FF4AF710448FEF79B
:1025400075FB084BD85D6843B5D140F26F119EE72B
:10255000C848000000800650204900000000015AD1
:10256000144900002C49000038B50B4B0446984232
:102570000D4607D0094B984204D040F28F1108480D
:10258000FEF754FB043425B104F580540123236085
:1025900038BD04F50054F9E70000015A00800650E8
:1025A000C848000038B5154B044698420D4607D080
:1025B000134B984204D04FF4D2711248FEF736FB09
:1025C0000023114A236404F50053DA636A7804F1A6
:1025D00008037AB903F5805302221A602046D5E930
:1025E00001122B7BFFF74CFF20462978BDE83840CD
:1025F000FFF7BABF03F50053EEE700BF0000015A32
:1026000000800650C8480000FFFF1F002DE9F84376
:10261000894B98420BD0894B984226D0884840F28B
:10262000FB11FEF703FB6FF00300BDE8F883854B59
:10263000402505264FF000084FF0030C996800F57F
:102640000054C26B12F4C06F15D097050FD5FD2250
:102650005A7009221A700022026493F901100129AC
:1026600000D15A7093F90100DFE7774BE0E7560598
:10267000EFD5FE22ECE71F78082F00F2D880DFE8C4
:1026800017F009001F0041004C006900740096001B
:102690009E00CD004C880A88E5060AD5120A02F091
:1026A000060242F0F002012119704263C16001206C
:1026B000BBE702F0FE02A10748BF42F00102F2E7C9
:1026C000170607D5802100F50052D1634FF6087236
:1026D0001A8062E05206EAD54A88E563D70604D537
:1026E00002221A700B784363E1E7920765D507224F
:1026F0001A701B7901EBC3010B89012BD7D1082379
:10270000C360D4E71706DDD45206D0D54A88E56306
:10271000970752D583F800C093E74C880A88E506EE
:1027200043BF120A02F0060242F0F00202F0FE027B
:10273000640709D51C7942F0010201EBC401098943
:10274000012904BF0821C160042119700123C3605D
:102750004263ACE71706B5D45706A8D54A88E563A7
:1027600052072AD507221A70A1E71A795F8801EB70
:10277000C20EBEF80890B94511D80132D2B21A7112
:102780004F88A3F8028017F0040FC3D1FF0702D4CB
:10279000012A7FF656AF08221A700223B0E7DEF84E
:1027A0000420791C5980D25D42630622DBE71706BC
:1027B00088D457067FF57BAFE5631E7041E794062A
:1027C0007FF575AF456A214C46691A793440B4F5F6
:1027D000003F04BF466A4FF4005601EBC20100F50A
:1027E00000540A8908BFE6632026E6635C88A2429B
:1027F00081BF4968661C5E800D5559888A42CAD9D6
:102800000424012AC46004D9013A914201D108226A
:10281000C2601A78092A3FF41EAF48E7D2057FF557
:1028200046AF4FF4807100F50052D16311E74FF6C7
:1028300009321A800FE700BF0000015A00800650DD
:10284000C8480000601100206C1100202000020028
:1028500038B5284B044698420D4644D0264B984242
:102860003ED040F25E312548FEF7E0F9002D3DD123
:1028700040F25F312148FEF7D9F91E4B9C4228D126
:102880001F4B2269D00744BF2022E2606A8891076B
:1028900001D5298951B3520701D52A8A32B34FF4A1
:1028A00080721A6000229D601A71C023E360636920
:1028B000DB0513D4202204F50053DA63114A2046C5
:1028C000DA63236C43F4FC632364BDE83840FFF70C
:1028D0009DBE094B9C4209D10B4BD2E7636AE6E7E8
:1028E0000029F9D1C4E70029CAD1C1E76FF003007C
:1028F00038BD00BF0000015A00800650C8480000E3
:1029000060110020FFFF1F006C11002070B506460B
:102910000C46154622B940F28E210C48FEF786F986
:1029200024B94FF42070FEF767FC04466D00013CAB
:10293000B4FBF5F4064B250213EA042304D040F25D
:10294000B3210248FEF772F9F56170BD304900000D
:10295000070080FF10B5194B0446984208D003F5D4
:102960008043984204D040F242411548FEF75EF998
:10297000012204F580535A6040F6AA6341F2050231
:10298000636100230F49A360E365E26004F5005230
:102990002361E361E36491640849A3658C4202D03A
:1029A0000948844207D18C42236502D0064B9C42E1
:1029B00001D1002363650123536010BD00C00550A1
:1029C00030490000FFFF01000000065038B5334BCE
:1029D000044698420D4608D003F58043984204D03F
:1029E00040F269312E48FEF721F92046FFF7B2FF89
:1029F0000122A97B04F580535A602A8AA368002922
:102A000014BF4FF48061002142F0010213432A7D7C
:102A10000B43002A14BF4FF000520022A360A368AA
:102A20001343A360AB7C5BB11C4AEB7C94422DD179
:102A3000A2F51032C2F88C31E36D43F08003E365F8
:102A40002B7B2046D5E9011243F48053E360FFF766
:102A50005DFF6B7B0BB1102363616B7D1BB1A368C2
:102A600043F48033A360AB7D1BB1A36843F4004300
:102A7000A360EB7D2A7E1B07120503F0E04302F4FE
:102A8000E0021343A3652B78636138BD054A944285
:102A900004BFA2F52032C2F89C31CDE700C005503A
:102AA000304900000000065083695A06FCD5C16316
:102AB00083699B06FCD5406AC0B2704707B56B4678
:102AC000054A1068516803C36846FFF7ABF9002058
:102AD00003B05DF804FB00BF7D49000013B500247E
:102AE000064A6846536F43F00103536700948DF81C
:102AF0000440FFF7DDF8204602B010BD0040005052
:102B000030B58BB06C46154D0FCD0FC40FCD0FC433
:102B100095E8030084E80300114BD3F84C2112031D
:102B200014D4D3F85041E4B28DF81940FEF7D4FD27
:102B3000204480F308008DF818000A48FEF754F886
:102B40006846FEF7D7FC00200BB030BD064B1C8852
:102B50004FF6FF739C4208BF8C24E5E788490000CC
:102B60000080E00F00F049020001E00F30B587B0AF
:102B7000084D01AC0FCD0FC42B6801A823603F2383
:102B80008DF80530FEF7AEFD6420FEF70DFE002047
:102B900007B030BDB049000010B56FF004025021FD
:102BA0000A480B4C12F0800FD3B21BBF03F00F0387
:102BB000043BA3181B1802F101020CBF83F8001399
:102BC0001976402AEED1002010BD00BF00ED00E0D4
:102BD00000E100E010B50446FFF75AF8024B1C6014
:102BE000FFF75AF8002010BD7811002010B5FFF74C
:102BF0004FF8034B1C68FFF74FF8204610BD00BF8D
:102C00007811002007B530B9CDE90012FFF7EEFFCB
:102C1000DDE9001230B1436823B1006803B05DF80C
:102C200004EB1847232003B05DF804FB30B585B0F2
:102C30001C4658B9CDE90012FFF7D8FFDDE90012B4
:102C400004B903AC20B9232005B030BD03B903ACEF
:102C50008568002DF7D023460068A847F4E70422D2
:102C6000C36A03F580539A64704710B50446C26A7C
:102C7000136C5906FCD50023A16B1A4694F8340056
:102C8000FFF7AEFB0023216C1A4694F83C00FFF7D7
:102C9000A7FB94F85430DA0706D50023A16C1A4636
:102CA00094F84400FFF79CFB94F854309B0706D53A
:102CB0000023216D1A4694F84C00FFF791FBE06A5F
:102CC0000021FFF729F9206B0021FEF76BFA0020A5
:102CD00010BD08B5C06AFFF755F9002008BD000017
:102CE0002DE9F0418AB01C4606AB064688461846D8
:102CF000174600211022109D00F0FEFA22790346AB
:102D00000AB18DF81820FB6163793046002B14BF9F
:102D100001230223CDE903335F4B424602935F4B0D
:102D200029460193002300935D4B00F0AFF906465E
:102D3000002840F08980A36801212B63A3693A2011
:102D40002B64237D85F83C302369AB63237B85F8B6
:102D50003430236AAB64237F85F84430A36A2B6543
:102D600094F8243085F84C302368EB62FEF71AFAA9
:102D7000012304222169207BFFF732FB0123022279
:102D8000A169207DFFF72CFB3E7085F8546001217E
:102D9000A068FEF707FA6379012113BB4FF4C06006
:102DA000FEF700FA1021A068FEF79CFD3946206866
:102DB000FFF72EFA02223B4B2169C3F8C020227B89
:102DC00042EA0142C3F8D020A169227D42EA0142D1
:102DD000C3F8CC202379032B5BD8DFE803F02A1556
:102DE00039524FF48060FEF7DDF90F21A068FEF73D
:102DF00079FD39462068FFF765FA95F8543043F0BD
:102E0000040385F85430D5E795F8543043F00103B6
:102E100085F85430002500230222216A207FFFF725
:102E2000DFFA226A237F43EA02431F4AC2F8C43012
:102E3000A5B904232068052100F50052536400F56C
:102E400080529364FFF768F830460AB0BDE8F0811D
:102E500095F8543043F0020385F8543000230422DF
:102E6000A16A94F82400FFF7BBFA01230E4AA16A75
:102E7000C2F8C03094F8243043EA0143C2F8C830A5
:102E8000D7E795F8543043F0030385F85430012513
:102E9000C1E72326D8E700BF6B2C00005F2C0000A1
:102EA000D32C000000C4035000D4035010B5C26AF4
:102EB0000446936C526C13405B070ED500F03CF94E
:102EC00060B1E06AFFF758F80146204600F044F987
:102ED0000422E36A03F500535A6410BD0422E36A36
:102EE00003F500539A64F8E700207047FEE74FF4BB
:102EF000005300204B60704701207047002070474E
:102F000007B5002001AB0190FFF790FE0198002863
:102F100008BF4FF0FF3003B05DF804FB10B5002090
:102F20001446FFF76FFE18B1BF210248FDF77EFE81
:102F3000204610BDC4490000034B0222186800233C
:102F40008068194600F0F8B93810002080F8241085
:102F5000704790F82400704770B504460568FFF785
:102F600045FE844202D10020FFF734FE95F9283057
:102F7000002B11DB012203F01F015B099B0003F111
:102F800060438A4003F56143C3F88021C3F8802081
:102F9000BFF34F8FBFF36F8F00232846C4E9003380
:102FA000C4E90433A360EB68BDE87040184770B50E
:102FB00090F8243005460C468E18E3B9A6420AD094
:102FC00095F82630002BF9D028462B6814F8011B01
:102FD00098470028F2D070BD95F826305BB1237871
:102FE0000A2B03D10D2128462B68984728462B68C9
:102FF00014F8011B9847B442EED1ECE72DE9F743F2
:103000004FF00009044690461E46C3F800904F1E3C
:103010003368434505D2FEF742FEA269C2B9FEF706
:1030200044FE94F827305BB91123012220460DF1AC
:1030300007018DF80730FFF7BAFF012384F8273026
:103040003368002B0CBF1B20002003B0BDE8F083C9
:10305000E16922698A5C07F8012F2569226A013536
:10306000954208BF4D46A2692561013AA261FEF76B
:103070001CFEA36820469847336801333360C7E7D6
:1030800008B5FFF794FF002008BD0000F8B51F4603
:10309000536805460C461646002B3ED09368002B1D
:1030A0003DD02C220021204600F026F973681D4AED
:1030B000E361B3682362337B84F82430B37B2760F9
:1030C00084F8253040F20113E384069B6360079B7C
:1030D000A360089BE36096F9003084F828306A60AA
:1030E000114A002BAA60114A2C602A61104A6A61B9
:1030F000104AEA600CDB012203F01F015B099B0010
:1031000003F160438A4003F56143C3F880211A60EC
:103110002846FFF75FFD0020F8BD2220FCE72120B4
:10312000FAE700BF81300000FD2F00004D2F0000A6
:10313000532F0000592F000010B50446FEF7AFFDD5
:10314000A269236A9A4203D2FEF7AFFD012010BDA7
:10315000FEF7ABFD0020FAE773B504460D4600E02C
:1031600000BFFEF79CFD94F8253006466BB1132D89
:1031700007D1002384F8263002B0BDE87040FEF786
:1031800094BD112D01D10123F4E7A269236A9A426B
:1031900004D340F269111448FDF748FD6369E26900
:1031A0003046D554A26963690132A261226A0133B3
:1031B0009342636104BF00236361FEF776FD94F8D8
:1031C00025307BB1A269236A9A420BD113230122D5
:1031D00020460DF107018DF80730FFF7E8FE0023C8
:1031E00084F8273002B070BD2E4A000008B5FDF704
:1031F000F9FAFDF727FBFDF727FBFDF72EFBBDE8EE
:103200000840FDF72BBB08B5FDF729FBFDF728FBB0
:10321000FDF727FBBDE80840FDF724BB10B50446C9
:10322000FDF7C6FC4FF47A729042B0FBF2F105D282
:103230003621BDE810400C48FDF7F8BC0B4BB3FB42
:10324000F1F30B49884201D93C21F2E702FB04F07B
:10325000B0FBF3F0022806D9BDE810400323B0FB11
:10326000F3F000F00DB810BD8E4A000040420F0090
:10327000E7CD9A3B000000000000000000000000C5
:10328000013800D0FCE7704708B5074B044613B17E
:10329000002100E000BF054B1868836A03B198471E
:1032A0002046FFF723FE00BF00000000E84A0000B0
:1032B00070B50D4D00260D4C641BA410A64209D11B
:1032C0000B4D00260B4C01F0D3F8641BA410A64252
:1032D00005D170BD55F8043B01369847EEE755F827
:1032E000043B01369847F2E79C1000209C10002018
:1032F0009C100020A010002002440346934200D1FD
:10330000704703F8011BF9E70FB40A4B13B51C68AB
:1033100024B1A36913B9204600F0EAF905AB049A79
:10332000A1682046019300F0FBFB02B0BDE810400D
:1033300004B07047381000202DE9F7431D465C4B60
:1033400004460E461F68904627B1BB6913B938463C
:1033500000F0CEF9574B9C4267D17C68B8F1020F60
:1033600006D0B8F1010F00F29E80002DC0F29B80C4
:10337000636EDB0705D4A389980502D4A06D00F025
:1033800055FA2146384600F01FF9616B41B104F14E
:103390004403994202D0384600F0B8FA0023636330
:1033A0000023A3616360A389190603D52169384608
:1033B00000F0ACFAA389B8F1020F23F44A6323F0BA
:1033C0000303A3816BD001AB6A462146384600F067
:1033D0002FFAA3891843A081002D30D1009D2846E3
:1033E00000F08CFA0646002854D1DDF80090A9457B
:1033F00049D14FF0FF350022B4F90C30A26004F13E
:10340000470243F00203226022610122A38162612C
:10341000626ED20705D413F4007F02D1A06D00F0D4
:1034200006FA284603B0BDE8F083234B9C4201D145
:10343000BC6893E7214B9C4208BFFC688EE7002ED6
:10344000CDD0BB6913B9384600F052F9B8F1010F7D
:10345000266002BFA38943F00103A381A28912F071
:103460000803C4E904651CD0D30745BF00236D429F
:10347000A560A36048BFA561656E15F0010515D173
:1034800012F4007FC9E7484600F038FA06460028E3
:10349000AFD04D46A38943F08003A381D1E7002537
:1034A000A9E7A360E8E74FF0FF35BAE70025B8E7E2
:1034B000381000200C4B00002C4B0000EC4A0000A0
:1034C0008A892DE9F041054610070C4658D44B680F
:1034D000002B05DC0B6C002B02DC0020BDE8F0812A
:1034E000E66A002EF9D0002312F480522F682B6078
:1034F00032D0606DA3895A0705D56368C01A636B23
:103500000BB1236CC01A00230246E66A2846216AE2
:10351000B047431CA38906D129681D292CD8294A04
:10352000CA40D60728D50022D904626022692260E9
:1035300004D5421C01D12B6803B96065616B2F6013
:103540000029CAD004F14403994202D0284600F071
:10355000DDF900206063C1E7216A01232846B047F6
:10356000411CC7D12B68002BC4D01D2B01D0162BBA
:1035700001D12F60B1E7A38943F04003A381ADE7F8
:103580000F69002FA9D093070E680F600CBF4B691D
:103590000023A6EB07088B60B8F1000F9DDD4346C2
:1035A0003A46216A2846A66AB047002806DCA38965
:1035B0004FF0FF3043F04003A3818FE70744A8EBAF
:1035C0000008E9E70100402038B50B6905460C46C4
:1035D00013B90025284638BD18B183690BB900F02E
:1035E00087F8144B9C421BD16C68B4F90C30002B4B
:1035F000EFD0626ED00704D4990502D4A06D00F01C
:1036000015F928462146FFF75BFF636E0546DA078A
:10361000E0D4A3899B05DDD4A06D00F008F9D9E7BB
:10362000054B9C4201D1AC68DFE7044B9C4208BFCC
:10363000EC68DAE70C4B00002C4B0000EC4A000071
:10364000002310B504468360818119464366C28118
:1036500008228361C0E90033C0E904335C30FFF71E
:103660004BFE054B24626362044BA362044BE3628E
:10367000044B236310BD00BFCD400000EF400000AD
:10368000274100004B410000014900F0AFB800BFE6
:10369000C935000070B568224D1E0E46554305F130
:1036A000740100F09FF9044640B1002105F1680261
:1036B000C0E900160C30A060FFF71EFE204670BD6A
:1036C000014800F0B3B800BF7D110020014800F0B0
:1036D000AEB800BF7D110020014800F0A7B800BFC0
:1036E0007E110020014800F0A2B800BF7E1100202A
:1036F00010B50446FFF7F0FFA3691BB1BDE8104009
:10370000FFF7F0BFC4E9123323652046124B134A7A
:103710001B68A262A34204BF0123A36100F020F84A
:103720006060204600F01CF8A060204600F018F809
:1037300000220421E0606068FFF782FF0122092176
:10374000A068FFF77DFF02221221E068FFF778FFF3
:103750000123A361D2E700BFE84A000089360000D8
:10376000F8B50746FFF7ACFF1E4B1E68B36913B9E7
:103770003046FFF7BDFF4836D6E90134013B03D59B
:1037800033680BB33668F7E7B4F90C50D5B9164B6C
:1037900004F158006566E36000F047F8FFF796FF14
:1037A0000822294604F15C002560A561C4E90155A1
:1037B000C4E90455FFF7A0FDC4E90D55C4E912554D
:1037C0002046F8BD6834D9E704213846FFF762FF88
:1037D000044630600028D5D1FFF778FF0C233B600A
:1037E000EEE700BFE84A00000100FFFF2DE9F843C3
:1037F0000646884600F148040027D4E90195B9F14E
:10380000010905D52468002CF7D13846BDE8F883B6
:10381000AB89012B07D9B5F90E30013303D0294606
:103820003046C04707436835E9E77047704770473F
:1038300070B50E46B1F90E1096B0144600291D461B
:1038400008DAB6F90C3000222A601A0610D44FF4B8
:1038500080630EE06A4600F05FFD0028F1DB019A0C
:1038600002F47042A2F500535A425A412A60EEE730
:1038700040230020236016B070BD00008B8973B513
:103880009D0706460C4607D504F1470323602361D4
:103890000123636102B070BD01AB6A46FFF7C8FF48
:1038A00000990546304600F09DF848B9B4F90C304F
:1038B0009A05EFD423F0030343F00203A381E3E767
:1038C0000D4BB362A389206043F080032061A38184
:1038D000009B6361019B5BB1B4F90E10304600F0B0
:1038E0002DFD28B1A38923F0030343F00103A38135
:1038F000A0890543A581CDE789360000024B01462A
:10390000186800F06FB800BF3810002037B50029E4
:1039100043D051F8043C0C1F0190002BB8BFE418B1
:1039200000F03CFD1E4A0198136833B963601460CF
:1039300003B0BDE8304000F037BDA34208D9256888
:1039400061198B4201BF19685B6849192160EDE775
:103950001A465B680BB1A342FAD911685518A54203
:103960000BD12468214454181160A342E0D11C6893
:103970005B68214453601160DAE702D90C230360CD
:10398000D6E7256861198B4202BF19685B6849193F
:10399000636008BF21605460CAE703B030BD00BF58
:1039A0008011002070B50E4E0C460546316811B9E5
:1039B00000F07CFB30602146284600F077FB431C7A
:1039C0000AD0C41C24F00304A04207D0211A2846C0
:1039D00000F06CFB013001D14FF0FF34204670BD88
:1039E000841100202DE9F041CD1C074625F0030588
:1039F00008350C2D38BF0C25002D01DBA94205D957
:103A00000C2300263B603046BDE8F0812E4E00F0CE
:103A1000C5FC33681C4634BB29463846FFF7C2FF55
:103A2000431C04464DD134682646002E40D12368FD
:103A30003146384604EB030800F038FB80453AD1A4
:103A40002168033538466D1A25F0030508350C2D1D
:103A500038BF0C252946FFF7A5FF01302BD023687E
:103A60002B4423600EE02268521B1ED40B2A16D969
:103A70006119A342256018BF5960636808BF3160AF
:103A800062514B6004F10B06384600F08DFC231D9B
:103A900026F00706F21AB6D09B1BA350B3E7626864
:103AA000A3420CBF32605A60ECE723466468B2E779
:103AB00034467668B9E70C2338463B6000F074FC66
:103AC000A1E72560DEE700BF801100209368013B7D
:103AD000002B936010B408DA9469A34201DB0A2931
:103AE00003D15DF8044B00F035BB1368581C10601F
:103AF000084619705DF8044B7047F8B506460F4646
:103B00001446D518AC4201D1002007E03A4614F81B
:103B1000011B3046FFF7DAFF431CF3D1F8BD00006C
:103B20002DE9F04F0D469DB014469846064618B153
:103B300083690BB9FFF7DCFD894B9D421BD175688A
:103B40006B6ED90705D4AB899A0502D4A86DFFF72F
:103B50006DFEAB891B0701D52B69EBB929463046B1
:103B600000F05CFBC0B16B6EDC070ED54FF0FF3090
:103B70001DB0BDE8F08F7B4B9D4201D1B568DFE7FA
:103B8000794B9D4208BFF568DAE7AB899805EDD41B
:103B9000A86DFFF74CFEE9E70023CDF80C804FF04D
:103BA0000109DFF8C881099320238DF829303023DB
:103BB0008DF82A3023469A4613F8012B0AB1252A9C
:103BC000F9D1BAEB040B0BD05B46224629463046AE
:103BD000FFF793FF013000F0AA80099A5A44099236
:103BE0009AF80030002B00F0A28000234FF0FF3243
:103BF0000AF1010A049307938DF853301A93CDE923
:103C0000052354460522594814F8011B00F0B8FB5F
:103C1000049AD8B9D10644BF20238DF85330130736
:103C200044BF2B238DF853309AF800302A2B15D03F
:103C3000079A544600204FF00A0C214611F8013B28
:103C4000303B092B4ED9B0B1079214E0A0EB08032A
:103C5000A24609FA03F313430493D2E7039B191D09
:103C60001B68002B0391BBBF5B4242F0020207932B
:103C70000793B8BF049223782E2B0CD163782A2B9C
:103C800035D1039B02341A1D1B68002B0392B8BF69
:103C90004FF0FF330593DFF8E4A00322217850466C
:103CA00000F06EFB40B14023A0EB0A00013403FAA0
:103CB00000F0049B0343049314F8011B06222C48D4
:103CC0008DF8281000F05CFB00283FD0294B1BBB6F
:103CD000039B073323F0070308330393099B3B44FB
:103CE000099367E70CFB02320C460120A5E700238D
:103CF00001344FF00A0C19460593204610F8012BA9
:103D0000303A092A03D9002BC5D00591C3E70CFB33
:103D1000012104460123F0E703AB2A4604A93046FB
:103D20000093154B00E000BF0746781CD6D16B6EA0
:103D3000D90705D4AB899A0502D4A86DFFF777FDA2
:103D4000AB895B063FF512AF099811E703AB2A4632
:103D500004A930460093084B00F082F8E4E700BF66
:103D60000C4B00002C4B0000EC4A00004C4B0000B8
:103D7000564B000000000000FB3A0000524B0000D0
:103D80002DE9F047164699468A6807460B690C46A6
:103D9000DDF820809342B8BF1346336091F843208A
:103DA0000AB1013333602368990642BF3368023396
:103DB0003360256815F0060506D104F1190AE36899
:103DC00032689B1AAB4229DC94F84320131E226808
:103DD00018BF012392062ED404F143024946384607
:103DE000C047013021D023681A3454F80E5C03F028
:103DF000060332680026042B54F8123C08BFAD1AA3
:103E000054F80A2C14BF002525EAE5759342C4BF77
:103E10009B1AED18B5421AD1002008E00123524642
:103E200049463846C047013003D14FF0FF30BDE866
:103E3000F0870135C3E7E1185A1C302002332244D1
:103E400081F8430094F8451082F84310C4E7012339
:103E5000224649463846C0470130E6D00136D9E708
:103E60002DE9FF470F7E914680460C46782F9A46F3
:103E70000C9D01F1430207D8622F0AD8002F00F0F1
:103E8000D880582F00F0A38004F1420584F84270D6
:103E90003AE0A7F16303152BF6D801A151F823F0FE
:103EA000F93E00000D3F0000893E0000893E000001
:103EB000893E0000893E00000D3F0000893E000061
:103EC000893E0000893E0000893E00001940000044
:103ED0003D3F0000FB3F0000893E0000893E00009E
:103EE0003B400000893E00003D3F0000893E00004D
:103EF000893E0000034000002B681A1D1B682A60E1
:103F000004F1420584F842300123A3E020682968C7
:103F1000060601F104030AD50E682B60002E03DAB1
:103F20002D23764284F843305E480A2319E00E6858
:103F300010F0400F2B6018BF36B2EFE72B682068F7
:103F4000191D2960010601D51E6802E04606FBD551
:103F50001E886F2F53480CBF08230A23002184F8C2
:103F600043106568002DA560A2BF216821F00401FF
:103F700021600EB9002D4DD01546B6FBF3F103FBC1
:103F80001167C75D05F8017D37460E46BB42F4D97F
:103F9000082B0BD12368DE0708D523696168994295
:103FA000DEBF302305F8013C05F1FF35521B2261CD
:103FB0004B4603AA21464046CDF800A0FFF7E0FE9D
:103FC00001304CD14FF0FF3004B0BDE8F0873548E8
:103FD00081F845702968236851F8046B29601D0633
:103FE00014D5DF0744BF43F0200323601EB92368C4
:103FF00023F0200323601023B0E7236843F020035D
:1040000023607823284884F84530E3E7590648BF01
:10401000B6B2E6E71546BBE72B682668181D61694E
:10402000286035061B6801D5196002E07006FBD5D3
:104030001980002315462361BAE72B6800211A1D59
:104040002A601D686268284600F09AF908B1401B92
:10405000606063682361002384F84330A8E7236924
:104060002A4649464046D0470130ABD023689B07DB
:1040700013D4E068039B9842B8BF1846A4E7012315
:10408000324649464046D04701309BD00135E3686F
:1040900003995B1AAB42F2DCEBE7002504F1190649
:1040A000F5E700BF5D4B00006E4B000038B5002304
:1040B000054D044608462B60FCF7BAFD431C02D1AF
:1040C0002B6803B1236038BD8811002010B50C4661
:1040D000B1F90E1000F06EF90028ABBF636DA38933
:1040E0001B1823F48053ACBF6365A38110BD2DE979
:1040F000F0411F468B8905460C46DB05164605D563
:1041000002230022B1F90E1000F028F9A3893246EB
:10411000B4F90E10284623F48053A3813B46BDE832
:10412000F04100F069B810B50C46B1F90E1000F07E
:1041300015F9431CA38915BF606523F4805343F42C
:104140008053A38118BFA38110BDB1F90E1000F0F8
:10415000D3B80000F8B50E461446054618B1836979
:104160000BB9FFF7C5FA214B9C422BD16C68A369B0
:10417000A360A3891A072FD523696BB32369F6B20D
:1041800020683746C01A6369834204DC214628460A
:10419000FFF71AFA30BBA3680130013BA360236824
:1041A0005A1C22601E706369834204D0A389DB0716
:1041B00006D50A2E04D121462846FFF705FA88B90C
:1041C0003846F8BD0A4B9C4201D1AC68CFE7094B99
:1041D0009C4208BFEC68CAE72146284600F01EF85A
:1041E0000028CBD04FF0FF37EAE700BF0C4B0000B0
:1041F0002C4B0000EC4A000038B50446064D08463A
:10420000114600222A601A46FEF788FE431C02D19E
:104210002B6803B1236038BD88110020324B70B584
:104220001D6806460C4625B1AB6913B92846FFF751
:104230005FFA2E4B9C420FD16C68A389B4F90C2015
:1042400019072CD4DD0611D40923336042F0400352
:104250004FF0FF30A3813EE0254B9C4201D1AC687A
:10426000EBE7244B9C4208BFEC68E6E7580712D501
:10427000616B41B104F14403994202D03046FFF72B
:1042800045FB00236363A38923F02403A381002358
:10429000636023692360A38943F00803A381236932
:1042A0004BB9A38903F42073B3F5007F03D02146F3
:1042B0003046FFF7E3FAA089B4F90C2010F00103AF
:1042C0000AD00023A36063695B42A361236943B9F9
:1042D00010F08000BAD170BD810758BF6369A36038
:1042E000F4E70020F7E700BF381000200C4B000077
:1042F0002C4B0000EC4A000038B50023054D044665
:1043000008462B60FEF7F0FD431C02D12B6803B179
:10431000236038BD8811002038B50023064D0446BF
:10432000084611462B60FEF7E2FD431C02D12B68C4
:1043300003B1236038BD00BF8811002038B50023C9
:10434000054D044608462B60FEF7D6FD431C02D1FE
:104350002B6803B1236038BD8811002038B50446AE
:10436000064D0846114600222A601A46FEF7C6FD91
:10437000431C02D12B6803B1236038BD8811002093
:10438000C9B2024410B59042034601D1002303E0B4
:104390001C7801308C42F6D1184610BD0148FFF759
:1043A00045BA00BF7C1100200148FFF740BA00BFAA
:1043B0007C11002038B50446064D084611460022FF
:1043C0002A601A46FEF79CFD431C02D12B6803B1FC
:1043D000236038BD8811002010B485B08DED010A2E
:1043E000019BC3F3C751A1F17F021E2A2ADC501C96
:1043F00023DB162A4FEAD3740BDDC3F3160096397C
:1044000040F40000884004B1404205B05DF8044B20
:104410007047164BDDED017A03EB840393ED007AD0
:1044200077EE277ACDED037ADDED037A77EEC77A62
:1044300017EE903A33F000420ED1002005B05DF83F
:10444000044B7047DDED017AFDEEE77A17EE900A36
:1044500005B05DF8044B7047C3F31600C3F3C753B0
:1044600040F40000C3F19603D840CCE7804B000035
:10447000F8B500BFF8BC08BC9E467047F8B500BF51
:10448000F8BC08BC9E46704720444941473D3078FF
:104490002530345800204255534F4C00204255538C
:1044A000554C002053484E544F4C002053484E5416
:1044B000554C0020544D504F4C0020504F4C002084
:1044C0004D4154484F460020454E455247594F46AE
:1044D00000204348415247454F4600204D454D5F1F
:1044E00045525200494E41323238205348554E54BD
:1044F0005F43414C3D257520287772697474656E61
:10450000290D0A00494E4132323820696E69742003
:104510006661696C65642028636865636B20493255
:104520004320776972696E672C20616464726573D9
:10453000732C207368756E742076616C7565290D17
:104540000A00494E41323238207265616479202870
:1045500061646472203078253032582C20527368A0
:10456000756E743D2575206D4F686D2C20496D6109
:10457000783D2575206D41290D0A00494E413232A2
:104580003820534F564C20283E3D2575206D41293B
:1045900020636F6E666967206661696C65640D0AE9
:1045A0000056425553203D20256C64206D562C202A
:1045B00049203D20256C6420754100204449414735
:1045C0003D6932635F65727200494E413232382074
:1045D00072656164206572726F72000040000000B5
:1045E0008FC2753C000020412E2E2F6175746F67BD
:1045F000656E2F736C5F696F73747265616D5F694F
:104600006E69745F6575736172745F696E737461EE
:104610006E6365732E63000005000000000000005B
:1046200000C20100000200000010000000000000B5
:1046300000000000000000000000035A000100001C
:10464000380000000000000005000000000000002D
:10465000060000000000000008000000000000004C
:10466000070000003E3F0000241100202000000051
:1046700000010000433A2F55736572732F6B697206
:10468000616E2F53696D706C6963697479537475C9
:1046900064696F2F53444B732F6765636B6F5F7350
:1046A000646B2F68617264776172652F626F6172EB
:1046B000642F7372632F736C5F626F6172645F63E8
:1046C0006F6E74726F6C5F6770696F2E63000000AD
:1046D000050000000000000040420F00050100003E
:1046E000000000000000000000000000433A2F55C9
:1046F000736572732F6B6972616E2F53696D706C85
:10470000696369747953747564696F2F53444B738B
:104710002F6765636B6F5F73646B2F706C6174667A
:104720006F726D2F6472697665722F693263737070
:104730006D2F7372632F736C5F69326373706D2EAC
:104740006300633A5C75736572735C6B6972616E6A
:104750005C73696D706C696369747973747564698D
:104760006F5C73646B735C6765636B6F5F73646BC3
:104770005C706C6174666F726D5C656D6C69625CB7
:10478000696E635C656D5F6770696F2E6800433AA0
:104790002F55736572732F6B6972616E2F53696D3C
:1047A000706C696369747953747564696F2F5344CD
:1047B0004B732F6765636B6F5F73646B2F706C61F6
:1047C00074666F726D2F656D6C69622F7372632FE3
:1047D000656D5F636D752E630002010103030206C0
:1047E000010504433A2F55736572732F6B6972612B
:1047F0006E2F53696D706C69636974795374756455
:10480000696F2F53444B732F6765636B6F5F7364DE
:104810006B2F706C6174666F726D2F656D6C696261
:104820002F7372632F656D5F656D752E6300433A5C
:104830002F55736572732F6B6972616E2F53696D9B
:10484000706C696369747953747564696F2F53442C
:104850004B732F6765636B6F5F73646B2F706C6155
:1048600074666F726D2F656D6C69622F7372632F42
:10487000656D5F6575736172742E6300433A2F55E1
:10488000736572732F6B6972616E2F53696D706CF3
:10489000696369747953747564696F2F53444B73FA
:1048A0002F6765636B6F5F73646B2F706C617466E9
:1048B0006F726D2F656D6C69622F7372632F656DFA
:1048C0005F6770696F2E6300433A2F55736572738B
:1048D0002F6B6972616E2F53696D706C69636974B7
:1048E0007953747564696F2F53444B732F676563F5
:1048F0006B6F5F73646B2F706C6174666F726D2F7A
:10490000656D6C69622F7372632F656D5F693263C9
:104910002E63000080841E00404B4C00809FD50019
:1049200080841E0040548900002D310108091108BF
:10493000433A2F55736572732F6B6972616E2F53F3
:10494000696D706C696369747953747564696F2FEC
:1049500053444B732F6765636B6F5F73646B2F708A
:104960006C6174666F726D2F656D6C69622F737206
:10497000632F656D5F75736172742E6300010304AC
:1049800001010109030000000B0000000B00000002
:1049900002000000000020200000000003000000D2
:1049A0008C8C3C00000000000000000000000000B3
:1049B00001260000040000000000000000010000CB
:1049C00000000000433A2F55736572732F6B6972B4
:1049D000616E2F53696D706C696369747953747576
:1049E00064696F2F53444B732F6765636B6F5F73FD
:1049F000646B2F706C6174666F726D2F7365727665
:104A00006963652F696F73747265616D2F7372636B
:104A10002F736C5F696F73747265616D5F7265741B
:104A200061726765745F737464696F2E6300433AE3
:104A30002F55736572732F6B6972616E2F53696D99
:104A4000706C696369747953747564696F2F53442A
:104A50004B732F6765636B6F5F73646B2F706C6153
:104A600074666F726D2F736572766963652F696FF7
:104A700073747265616D2F7372632F736C5F696FEE
:104A800073747265616D5F756172742E6300433A71
:104A90002F55736572732F6B6972616E2F53696D39
:104AA000706C696369747953747564696F2F5344CA
:104AB0004B732F6765636B6F5F73646B2F706C61F3
:104AC00074666F726D2F736572766963652F756496
:104AD000656C61792F7372632F736C5F7564656C9D
:104AE00061792E63000000003C10002000000000EF
:104AF00000000000000000000000000000000000B6
:104B000000000000000000000000000000000000A5
:104B10000000000000000000000000000000000095
:104B20000000000000000000000000000000000085
:104B30000000000000000000000000000000000075
:104B4000000000000000000000000000232D302BBA
:104B50002000686C4C00656667454647003031327E
:104B600033343536373839414243444546003031D5
:104B70003233343536373839616263646566000034
:084B80000000004B000000CB17
:084B8800F8B5FF7F01000000F9
:0C4B90009C4B00000010002029000000D9
:104B9C0040000000008006500303030200000000E8
:104BAC00A086010000000000008006504411002087
:104BBC00C0EA2101C0EA210100F049020080000096
:104BCC0090110020FFFF00003C10002000000000AE
:104BDC000C4B00002C4B0000EC4A000000000000C5
:104BEC0000000000000000000000000000000000B9
:104BFC0000000000000000000000000000000000A9
:104C0C000000000000000000000000000000000098
:104C1C000000000000000000000000000000000088
:104C2C000000000000000000000000006501000012
:044C3C004101000032
:0400000300000AAD42
:00000001FF
